{
  "contractName": "Payroll",
  "abi": [
    {
      "constant": false,
      "inputs": [
        {
          "name": "from",
          "type": "address"
        },
        {
          "name": "caddress",
          "type": "address"
        },
        {
          "name": "_tos",
          "type": "address[]"
        },
        {
          "name": "vaule",
          "type": "uint256"
        }
      ],
      "name": "transfer",
      "outputs": [
        {
          "name": "",
          "type": "bool"
        }
      ],
      "payable": false,
      "stateMutability": "nonpayable",
      "type": "function"
    },
    {
      "constant": true,
      "inputs": [],
      "name": "checkInfo",
      "outputs": [
        {
          "name": "balance",
          "type": "uint256"
        },
        {
          "name": "runway",
          "type": "uint256"
        },
        {
          "name": "employeeCount",
          "type": "uint256"
        }
      ],
      "payable": false,
      "stateMutability": "view",
      "type": "function"
    }
  ],
  "bytecode": "0x608060405234801561001057600080fd5b50610370806100206000396000f30060806040526004361061004c576000357c0100000000000000000000000000000000000000000000000000000000900463ffffffff1680631561ae311461005157806385a9625814610119575b600080fd5b34801561005d57600080fd5b506100ff600480360381019080803573ffffffffffffffffffffffffffffffffffffffff169060200190929190803573ffffffffffffffffffffffffffffffffffffffff1690602001909291908035906020019082018035906020019080806020026020016040519081016040528093929190818152602001838360200280828437820191505050505050919291929080359060200190929190505050610152565b604051808215151515815260200191505060405180910390f35b34801561012557600080fd5b5061012e610318565b60405180848152602001838152602001828152602001935050505060405180910390f35b6000806000845111151561016557600080fd5b846000806101000a81548173ffffffffffffffffffffffffffffffffffffffff021916908373ffffffffffffffffffffffffffffffffffffffff160217905550600090505b835181101561030b576000809054906101000a900473ffffffffffffffffffffffffffffffffffffffff1673ffffffffffffffffffffffffffffffffffffffff166323b872dd8786848151811015156101ff57fe5b90602001906020020151866040518463ffffffff167c0100000000000000000000000000000000000000000000000000000000028152600401808473ffffffffffffffffffffffffffffffffffffffff1673ffffffffffffffffffffffffffffffffffffffff1681526020018373ffffffffffffffffffffffffffffffffffffffff1673ffffffffffffffffffffffffffffffffffffffff1681526020018281526020019350505050602060405180830381600087803b1580156102c257600080fd5b505af11580156102d6573d6000803e3d6000fd5b505050506040513d60208110156102ec57600080fd5b81019080805190602001909291905050505080806001019150506101aa565b6001915050949350505050565b60008060003073ffffffffffffffffffffffffffffffffffffffff1631925060009050600191509091925600a165627a7a72305820438a6140b3048c399c761490a48721c443b945d44f9970426c90d9630e2cc2180029",
  "source": "pragma solidity ^0.4.24;\r\n \r\ncontract ERC20Abstract {\r\n      function totalSupply() public view returns (uint256);\r\n      function balanceOf(address who) public view returns (uint256);\r\n      function transfer(address to, uint256 value) public returns (bool);\r\n      function transferFrom(address from, address to, uint256 value) public returns (bool);\r\n\r\n}\r\n\r\ncontract Payroll{\r\n    \r\n    ERC20Abstract token;\r\n   \r\n \r\n    function transfer(address from,address caddress,address[] _tos,uint vaule)public returns (bool){\r\n        require(_tos.length > 0);\r\n        token = ERC20Abstract(caddress);\r\n        for(uint i=0;i<_tos.length;i++){\r\n         token.transferFrom(from,_tos[i],vaule);\r\n        }\r\n        return true;\r\n    }\r\n    \r\n    function checkInfo() public constant returns (uint balance, uint runway, uint employeeCount) {\r\n        balance = address(this).balance;\r\n        employeeCount = 0;    \r\n        runway = 1;        \r\n    }\r\n    \r\n}",
  "sourcePath": "/Users/gaobing/Documents/smartContract/openCode/airdrop/contracts/Payroll.sol",
  "compiler": {
    "name": "solc",
    "version": "0.4.24+commit.e67f0147.Emscripten.clang"
  },
  "schemaVersion": "2.0.1",
  "updatedAt": "2018-09-09T12:10:23.140Z"
}